:100000000C9435000C945D000C945D000C945D0024
:100010000C945D000C945D000C945D000C945D00EC
:100020000C945D000C945D000C945D000C945D00DC
:100030000C945D000C945D000C945D000C945D00CC
:100040000C9435020C945D000C94FB010C94C001DF
:100050000C945D000C945D000C945D000C945D00AC
:100060000C945D000C945D007F0211241FBECFEF45
:10007000D8E0DEBFCDBF11E0A0E0B1E0E8EEFDE0EA
:1000800002C005900D92A032B107D9F721E0A0E29D
:10009000B1E001C01D92AB3EB207E1F710E0C5E34D
:1000A000D0E004C02197FE010E94EC06C433D107C2
:1000B000C9F70E94BA020C94F6040C9400000F9346
:1000C0001F93CF93DF93FC01A685B7858D01005C5C
:1000D0001F4FE8018881998101968F739927AD019F
:1000E0004E5B5F4FEA012881398182179307D1F374
:1000F000E80128813981A20FB31F6C93A685B785CB
:10010000A05CBF4F11969C938E93A689B7892C91C2
:1001100081E090E0078C02C0880F991F0A94E2F7F3
:10012000822B8C9381E081A30488F589E02D808166
:100130008064808381E090E0DF91CF911F910F91E7
:100140000895FC0181A1882329F0A489B5898C91A7
:1001500086FFFBCF11A20895FC01A485B585FD01A2
:10016000E05CFF4F20813181329680819181281798
:10017000390779F080819181A80FB91F8C91208176
:1001800031812F5F3F4F2F7333273183208390E0DE
:1001900008958FEF9FEF0895DC011C96ED91FC917F
:1001A0001D97DF01A05CBF4F2D913C9111971296D6
:1001B0008D919C9111972817390739F08D919C9159
:1001C000E80FF91F808190E008958FEF9FEF089569
:1001D000FC0124853585F901E05CFF4F8081918128
:1001E000329620813181821B930B8F73992708955A
:1001F00089EC91E00C94E8000895CF92DF92EF92A1
:10020000FF920F931F93CF93DF936C01EB017B0160
:10021000E40EF51E00E010E0CE15DF0561F06991F7
:10022000D601ED91FC910190F081E02DC601099578
:10023000080F191FF1CFC801DF91CF911F910F91C6
:10024000FF90EF90DF90CF9008958E3008F08E50A1
:100250008770806480937C0080917A0080648093B2
:100260007A0080917A0086FDFCCF80917800209101
:10027000790090E0922B08953FB7F8948091250182
:1002800090912601A0912701B091280126B5A89B45
:1002900005C02F3F19F00196A11DB11D3FBFBA2F18
:1002A000A92F982F8827820F911DA11DB11DBC0178
:1002B000CD0142E0660F771F881F991F4A95D1F73D
:1002C0000895009769F0FC0101900020E9F731974B
:1002D000AF01481B590BBC0189EC91E00C94FD0067
:1002E00080E090E008958F929F92AF92BF92EF923C
:1002F000FF920F931F93CF93DF93CDB7DEB7A197F4
:100300000FB6F894DEBF0FBECDBF162F042F19A273
:10031000423008F40AE07E0121E2E20EF11C802E58
:10032000912CA12CB12C612FA50194010E94CA0629
:10033000029F1019112481E0E81AF1081A3014F410
:10034000105D01C0195CF7011083122F732FCA01D1
:10035000232B242B252B39F7C7010E946101A1967D
:100360000FB6F894DEBF0FBECDBFDF91CF911F91C6
:100370000F91FF90EF90BF90AF909F908F90089556
:100380001F920F920FB60F9211242F933F938F93CA
:100390009F93EF93FF93209181013091820180918F
:1003A0008301909184012817390731F48091C100AD
:1003B0008F7D8093C10014C0E0918301F09184018E
:1003C000EF5BFE4F20818091830190918401019623
:1003D0008F73992790938401809383012093C600A3
:1003E000FF91EF919F918F913F912F910F900FBEB1
:1003F0000F901F9018951F920F920FB60F92112415
:100400002F934F935F938F939F93EF93FF938091DD
:10041000C00082FD1CC02091C6008091C501909152
:10042000C60101968F7399274091C7015091C80169
:100430008417950771F0E091C501F091C601EB5763
:10044000FE4F20839093C6018093C50102C0809126
:10045000C600FF91EF919F918F915F914F912F91E6
:100460000F900FBE0F901F9018951F920F920FB60E
:100470000F9211242F933F938F939F93AF93BF932A
:100480008091210190912201A0912301B09124013A
:100490003091200123E0230F2D3720F40196A11D78
:1004A000B11D05C026E8230F0296A11DB11D2093A2
:1004B00020018093210190932201A0932301B09306
:1004C00024018091250190912601A0912701B091EE
:1004D00028010196A11DB11D80932501909326014D
:1004E000A0932701B0932801BF91AF919F918F9165
:1004F0003F912F910F900FBE0F901F901895E9EC30
:10050000F1E01382128288EE93E0A0E0B0E08483F1
:100510009583A683B78384E091E09183808385E807
:1005200091E09587848781E491E09787868785ECC1
:1005300090E0918B808B84EC90E0938B828B80ECAD
:1005400090E0958B848B81EC90E0978B868B82EC8E
:1005500090E0918F808F86EC90E0938F828F84E083
:10056000848F83E0858F87E0868F85E0878F81E0A9
:1005700080A30895789484B5826084BD84B5816039
:1005800084BD85B5826085BD85B5816085BD80915E
:100590006E00816080936E001092810080918100D6
:1005A00082608093810080918100816080938100CE
:1005B000809180008160809380008091B100846090
:1005C0008093B1008091B00081608093B0008091F1
:1005D0007A00846080937A0080917A0082608093B0
:1005E0007A0080917A00816080937A0080917A000D
:1005F000806880937A001092C100E091DD01F09153
:10060000DE0181E090E09C010090E90102C0220F30
:10061000331F0A94E2F72083E091D901F091DA01C7
:100620001082E091DB01F091DC012FEC208310922D
:10063000EA01E091DF01F091E00140819C0100902E
:10064000E50102C0220F331F0A94E2F7242B208316
:10065000E091DF01F091E00140819C010090E60112
:1006600002C0220F331F0A94E2F7242B2083E0916B
:10067000DF01F091E00140819C010090E70102C0A0
:10068000220F331F0A94E2F7242B2083E091DF012D
:10069000F091E00120810090E80102C0880F991FCD
:1006A0000A94E2F780958223808389EC91E00E948E
:1006B000E8001816190644F489EC91E00E94AC0099
:1006C00090932A01809329011092400110923F01DA
:1006D000C0913F01D09140018091290190912A0160
:1006E000C817D9070CF085C0C230D10509F446C03F
:1006F000C4F4209789F1C130D10509F074C08FE0AE
:100700000E942501BC01990F880B990B0E94A3053B
:1007100060932F01709330018093310190933201E7
:1007200062C0C430D10509F44DC0D4F1C530D10543
:1007300009F059C083E10E942501BC01990F880B83
:10074000990B0E94A30560933F0170934001809331
:1007500041019093420147C08EE00E942501BC01F7
:10076000990F880B990B0E94A30560932B0170933E
:100770002C0180932D0190932E0135C080E10E94C1
:100780002501BC01990F880B990B0E94A30560936A
:10079000330170933401809335019093360123C067
:1007A00081E10E942501BC01990F880B990B0E94E1
:1007B000A3056093370170933801809339019093BA
:1007C0003A0111C082E10E942501BC01990F880BFA
:1007D000990B0E94A30560933B0170933C018093A9
:1007E0003D0190933E012196D0934001C0933F017B
:1007F0006FCF1092400110923F0180913F01909184
:1008000040012091290130912A01821793070CF0B1
:10081000CAC0880F991F880F991FFC01E55DFE4F24
:10082000C080D180E280F380A7019601C701B601A4
:100830000E94C506882319F080E191E027C0460197
:100840005701E894B7F82FEF3FEF4FE75FE7C50197
:10085000B4010E94C50681110DC02FEF3FEF4FE795
:100860005FE7C501B4010E94660518161CF484E117
:1008700091E00CC02FEF3FEF4FE75FE4C701B601F7
:100880000E94530618162CF488E191E00E94610141
:1008900080C02FEF3FEF4FE75FECC701B6010E942A
:1008A000660587FDF1CF20E030E0A901C701B60160
:1008B0000E94660587FF0FC0E091C901F091CA014F
:1008C0000190F081E02D6DE289EC91E00995F7FA55
:1008D000F094F7F8F0942AE037ED43EA5BE3C701C0
:1008E000B6010E94FA046B017C010E9472054B0163
:1008F0005C010E94A1059B01AC01C701B6010E94E9
:10090000F9046B017C014AE0C501B4010E94730146
:100910008CE191E00E946101C3E0C150D1F120E07F
:1009200030E040E251E4C701B6010E9458064B0195
:100930005C010E946B056B01770FEE08FF08F7FE64
:1009400016C0E091C901F091CA010190F081E02D3B
:100950006DE289EC91E0099588279927DC018C19D3
:100960009D09AE09BF094AE0BC01CD0103C04AE0C0
:10097000C701B6010E947301C701B6010E94A30519
:100980009B01AC01C501B4010E94F9046B017C011B
:10099000C4CF80913F019091400101969093400116
:1009A00080933F012ACF8EE191E00E9461010E9475
:1009B0003C01EB0184EFC82EDD24D394E12CF12C13
:1009C0000E943C016C1B7D0B683E734038F081E057
:1009D000C81AD108E108F108C851DC4FC114D1048C
:1009E000E104F10469F70E94F8006ECEF8940C94CB
:1009F000F2065058BB27AA270E9411050C9419062D
:100A00000E940B0638F00E94120620F039F49F3F36
:100A100019F426F40C9408060EF4E095E7FB0C9408
:100A20000206E92F0E942A0658F3BA1762077307D5
:100A30008407950720F079F4A6F50C944C060EF483
:100A4000E0950B2EBA2FA02D0B01B90190010C01DE
:100A5000CA01A0011124FF27591B99F0593F50F4F6
:100A6000503E68F11A16F040A22F232F342F44274E
:100A7000585FF3CF469537952795A795F040539546
:100A8000C9F77EF41F16BA0B620B730B840BBAF016
:100A90009150A1F0FF0FBB1F661F771F881FC2F781
:100AA0000EC0BA0F621F731F841F48F48795779595
:100AB0006795B795F7959E3F08F0B0CF9395880F4F
:100AC00008F09927EE0F9795879508950E94DE0507
:100AD00008F481E008950E9472056894B1110C94A5
:100AE0004D0608950E94320688F09F5798F0B92F5E
:100AF0009927B751B0F0E1F0660F771F881F991F53
:100B00001AF0BA95C9F714C0B13091F00E944C06A2
:100B1000B1E008950C944C06672F782F8827B85FB2
:100B200039F0B93FCCF3869577956795B395D9F7AA
:100B30003EF490958095709561957F4F8F4F9F4FB4
:100B40000895E89409C097FB3EF4909580957095C0
:100B500061957F4F8F4F9F4F9923A9F0F92F96E909
:100B6000BB279395F695879577956795B795F1117E
:100B7000F8CFFAF4BB0F11F460FF1BC06F5F7F4F1B
:100B80008F4F9F4F16C0882311F096E911C077232D
:100B900021F09EE8872F762F05C0662371F096E836
:100BA000862F70E060E02AF09A95660F771F881F05
:100BB000DAF7880F9695879597F90895990F0008A9
:100BC000550FAA0BE0E8FEEF16161706E807F9071F
:100BD000C0F012161306E407F50798F0621B730BBA
:100BE000840B950B39F40A2661F0232B242B252B3B
:100BF00021F408950A2609F4A140A6958FEF811DDE
:100C0000811D089597F99F6780E870E060E008957E
:100C10009FEF80EC089500240A9416161706180614
:100C20000906089500240A941216130614060506F0
:100C30000895092E0394000C11F4882352F0BB0F81
:100C400040F4BF2B11F460FF04C06F5F7F4F8F4FE4
:100C50009F4F089557FD9058440F551F59F05F3F1F
:100C600071F04795880F97FB991F61F09F3F79F0CE
:100C700087950895121613061406551FF2CF469550
:100C8000F1DF08C0161617061806991FF1CF8695D2
:100C90007105610508940895E894BB2766277727B6
:100CA000CB0197F908950E94DE0508F48FEF0895AF
:100CB0000E946B060C9419060E940B0638F00E94E5
:100CC000120620F0952311F00C9402060C940806ED
:100CD00011240C944D060E942A0670F3959FC1F3CF
:100CE000950F50E0551F629FF001729FBB27F00DDA
:100CF000B11D639FAA27F00DB11DAA1F649F66272F
:100D0000B00DA11D661F829F2227B00DA11D621F7D
:100D1000739FB00DA11D621F839FA00D611D221F37
:100D2000749F3327A00D611D231F849F600D211D1B
:100D3000822F762F6A2F11249F5750409AF0F1F09E
:100D400088234AF0EE0FFF1FBB1F661F771F881F07
:100D500091505040A9F79E3F510580F00C94020637
:100D60000C944D065F3FE4F3983ED4F38695779557
:100D70006795B795F795E7959F5FC1F7FE2B880FAD
:100D8000911D9695879597F908950E94DE05880B29
:100D9000990B0895A1E21A2EAA1BBB1BFD010DC0E1
:100DA000AA1FBB1FEE1FFF1FA217B307E407F5071B
:100DB00020F0A21BB30BE40BF50B661F771F881FF7
:100DC000991F1A9469F760957095809590959B018D
:100DD000AC01BD01CF010895EE0FFF1F0590F49106
:080DE000E02D0994F894FFCF07
:100DE800000000005F00FD00E800AC00CC00A1009E
:100DF8006E616E00696E66006F7666002E002A00CE
:00000001FF
