:100000000C9435000C945D000C945D000C945D0024
:100010000C945D000C945D000C945D000C945D00EC
:100020000C945D000C945D000C945D000C945D00DC
:100030000C945D000C945D000C945D000C945D00CC
:100040000C94D6010C945D000C949C010C946101FD
:100050000C945D000C945D000C945D000C945D00AC
:100060000C945D000C945D00200211241FBECFEFA4
:10007000D8E0DEBFCDBF11E0A0E0B1E0E0EAF7E0FC
:1000800002C005900D92A631B107D9F721E0A6E193
:10009000B1E001C01D92AB3CB207E1F710E0C5E34F
:1000A000D0E004C02197FE010E94C803C433D107E9
:1000B000C9F70E945B020C94A3030C9400000F93F9
:1000C0001F93CF93DF93FC01A685B7858D01005C5C
:1000D0001F4FE8018881998101968F739927AD019F
:1000E0004E5B5F4FEA012881398128173907D1F328
:1000F000E80128813981A20FB31F6C93A685B785CB
:10010000A05CBF4F11969C938E93A689B7892C91C2
:1001100081E090E0078C02C0880F991F0A94E2F7F3
:10012000822B8C9381E081A30488F589E02D808166
:100130008064808381E090E0DF91CF911F910F91E7
:100140000895682F89EA91E00C945F00FC0181A179
:10015000882329F0A489B5898C9186FFFBCF11A251
:100160000895FC01A485B585FD01E05CFF4F208169
:1001700031813296808191812817390779F0808109
:100180009181A80FB91F8C91208131812F5F3F4F42
:100190002F7333273183208390E008958FEF9FEFF3
:1001A0000895DC011C96ED91FC911D97DF01A05C88
:1001B000BF4F2D913C91119712968D919C91119763
:1001C0002817390739F08D919C91E80FF91F80812C
:1001D00090E008958FEF9FEF0895FC012485358509
:1001E000F901E05CFF4F808191813296208131815D
:1001F000821B930B8F739927089589EA91E00C94E1
:10020000ED000895CF92DF92EF92FF920F931F932C
:10021000CF93DF936C01EB017B01E40EF51E00E050
:1002200010E0CE15DF0561F06991D601ED91FC91EA
:100230000190F081E02DC6010995080F191FF1CF3B
:10024000C801DF91CF911F910F91FF90EF90DF9048
:10025000CF9008953FB7F89480911B0190911C01B5
:10026000A0911D01B0911E0126B5A89B05C02F3F8E
:1002700019F00196A11DB11D3FBFBA2FA92F982FCC
:100280008827820F911DA11DB11DBC01CD0142E047
:10029000660F771F881F991F4A95D1F70895009719
:1002A00069F0FC0101900020E9F73197AF01481B8C
:1002B000590BBC0189EA91E00C94020180E090E0C6
:1002C00008951F920F920FB60F9211242F933F9310
:1002D0008F939F93EF93FF9320916101309162017F
:1002E00080916301909164012817390731F480915E
:1002F000C1008F7D8093C10014C0E0916301F09133
:100300006401EF5DFE4F2081809163019091640153
:1003100001968F73992790936401809363012093D2
:10032000C600FF91EF919F918F913F912F910F9078
:100330000FBE0F901F9018951F920F920FB60F923D
:1003400011242F934F935F938F939F93EF93FF937A
:100350008091C00082FD1CC02091C6008091A50143
:100360009091A6014091A7015091A80101968F7329
:1003700099274817590771F0E091A501F091A6015E
:10038000EB59FE4F20839093A6018093A50102C0F4
:100390008091C600FF91EF919F918F915F914F9156
:1003A0002F910F900FBE0F901F9018951F920F92D4
:1003B0000FB60F9211242F933F938F939F93AF9378
:1003C000BF938091170190911801A0911901B091EC
:1003D0001A013091160123E0230F2D3720F40196E6
:1003E000A11DB11D05C026E8230F0296A11DB11D58
:1003F000209316018093170190931801A09319017F
:10040000B0931A0180911B0190911C01A0911D01D4
:10041000B0911E010196A11DB11D80931B01909307
:100420001C01A0931D01B0931E01BF91AF919F913C
:100430008F913F912F910F900FBE0F901F901895A5
:10044000E9EAF1E01382128288EE93E0A0E0B0E0E6
:1004500084839583A683B78384E091E0918380832E
:1004600085E691E09587848781E291E0978786878A
:1004700085EC90E0918B808B84EC90E0938B828B69
:1004800080EC90E0958B848B81EC90E0978B868B51
:1004900082EC90E0918F808F86EC90E0938F828F3A
:1004A00084E0848F83E0858F87E0868F85E0878F67
:1004B00081E080A30895CF93DF93CDB7DEB7A197F6
:1004C0000FB6F894DEBF0FBECDBF789484B58260BE
:1004D00084BD84B5816084BD85B5826085BD85B5E8
:1004E000816085BD80916E00816080936E00109266
:1004F00081008091810082608093810080918100E1
:100500008160809381008091800081608093800071
:100510008091B10084608093B1008091B0008160CF
:100520008093B00080917A00846080937A008091FB
:100530007A00826080937A0080917A008160809353
:100540007A0080917A00806880937A001092C100CE
:10055000E091BD01F091BE0181E090E09C0100902E
:10056000C90102C0220F331F0A94E2F72083E091F1
:10057000B901F091BA011082E091BB01F091BC0188
:100580002FEC20831092CA01E091BF01F091C001CD
:1005900040819C010090C50102C0220F331F0A94C4
:1005A000E2F7242B2083E091BF01F091C00140814C
:1005B0009C010090C60102C0220F331F0A94E2F78B
:1005C000242B2083E091BF01F091C00140819C0168
:1005D0000090C70102C0220F331F0A94E2F7242BB8
:1005E0002083E091BF01F091C00120810090C801FB
:1005F00002C0880F991F0A94E2F7809582238083B6
:100600009AE0892E912CA12CB12C44E050E060E1BD
:1006100071E089EA91E00E9402018DE00E94A10050
:100620008AE00E94A100C0901F01D09020010D2CF3
:10063000000CEE08FF08F7FE2BC08DE20E94A1001F
:10064000F094E094D094C094C11CD11CE11CF11C26
:1006500019A28E010F5D1F4FC701B601A5019401BC
:100660000E94A6038C2D9AE0299F80191124015025
:1006700011098A3014F4805D01C0895CF80180831F
:1006800069017A01232B242B252B31F7C80123C0C4
:100690001C2D7D2DC70119A29E012F5D3F4F7901B1
:1006A000612FA50194010E94A6038AE0289F1019DA
:1006B000112491E0E91AF1081A3014F4105D01C018
:1006C000195CF7011083122F732FCA01232B242BDF
:1006D000252B31F7C7010E944F018DE00E94A10038
:1006E0008AE00E94A10080911F0190912001019653
:1006F0008E3F91052CF49093200180931F0104C03C
:100700001092200110921F010E942A018B0184EF98
:10071000C82EDD24D394E12CF12C0E942A01601B09
:10072000710B683E7340C8F321E0C21AD108E1089A
:10073000F10808511C4FC114D104E104F10469F718
:100740000E94FD0062CFF8940C94CE03A1E21A2E11
:10075000AA1BBB1BFD010DC0AA1FBB1FEE1FFF1F65
:10076000A217B307E407F50720F0A21BB30BE40BB5
:10077000F50B661F771F881F991F1A9469F76095FC
:100780007095809590959B01AC01BD01CF010895B6
:10079000EE0FFF1F0590F491E02D0994F894FFCF20
:1007A000000000005F000201ED00B100D100A600D2
:0607B000486F6C610000BF
:00000001FF
